{
  "_format": "hh-sol-artifact-1",
  "contractName": "Journal",
  "sourceName": "contracts/Journal.sol",
  "abi": [
    {
      "inputs": [],
      "stateMutability": "nonpayable",
      "type": "constructor"
    },
    {
      "inputs": [
        {
          "internalType": "string",
          "name": "immatriculation",
          "type": "string"
        },
        {
          "internalType": "address",
          "name": "vendeur",
          "type": "address"
        },
        {
          "internalType": "uint256",
          "name": "prix",
          "type": "uint256"
        }
      ],
      "name": "acheterVoiture",
      "outputs": [],
      "stateMutability": "nonpayable",
      "type": "function"
    },
    {
      "inputs": [
        {
          "internalType": "address",
          "name": "mecanicien",
          "type": "address"
        },
        {
          "internalType": "address",
          "name": "assureur",
          "type": "address"
        }
      ],
      "name": "assurer",
      "outputs": [],
      "stateMutability": "nonpayable",
      "type": "function"
    },
    {
      "inputs": [
        {
          "internalType": "string",
          "name": "_immatriculation",
          "type": "string"
        }
      ],
      "name": "createCar",
      "outputs": [],
      "stateMutability": "nonpayable",
      "type": "function"
    },
    {
      "inputs": [
        {
          "internalType": "string",
          "name": "immatriculation",
          "type": "string"
        }
      ],
      "name": "getVoiture",
      "outputs": [
        {
          "components": [
            {
              "internalType": "string",
              "name": "id",
              "type": "string"
            },
            {
              "internalType": "address",
              "name": "owner",
              "type": "address"
            },
            {
              "internalType": "string[]",
              "name": "journal",
              "type": "string[]"
            }
          ],
          "internalType": "struct Journal.Voiture",
          "name": "",
          "type": "tuple"
        }
      ],
      "stateMutability": "view",
      "type": "function"
    },
    {
      "inputs": [
        {
          "internalType": "string",
          "name": "",
          "type": "string"
        }
      ],
      "name": "parc",
      "outputs": [
        {
          "internalType": "string",
          "name": "id",
          "type": "string"
        },
        {
          "internalType": "address",
          "name": "owner",
          "type": "address"
        }
      ],
      "stateMutability": "view",
      "type": "function"
    },
    {
      "inputs": [
        {
          "internalType": "string",
          "name": "immatriculation",
          "type": "string"
        },
        {
          "internalType": "uint256",
          "name": "prix",
          "type": "uint256"
        },
        {
          "internalType": "string",
          "name": "message",
          "type": "string"
        }
      ],
      "name": "reparerVoiture",
      "outputs": [],
      "stateMutability": "nonpayable",
      "type": "function"
    },
    {
      "inputs": [
        {
          "internalType": "string",
          "name": "immatriculation",
          "type": "string"
        }
      ],
      "name": "seeOwnerShip",
      "outputs": [
        {
          "internalType": "address",
          "name": "",
          "type": "address"
        }
      ],
      "stateMutability": "view",
      "type": "function"
    }
  ],
  "bytecode": "0x608060405234801561001057600080fd5b506112eb806100206000396000f3fe608060405234801561001057600080fd5b506004361061007d5760003560e01c806381730ea11161005b57806381730ea114610113578063aacf9b761461012f578063d24386c41461014b578063ede6fbf5146101675761007d565b80632f1220d9146100825780635fc1033d146100b257806373e09b54146100e3575b600080fd5b61009c60048036038101906100979190610a29565b610183565b6040516100a99190610c4b565b60405180910390f35b6100cc60048036038101906100c79190610a29565b61037c565b6040516100da929190610cc6565b60405180910390f35b6100fd60048036038101906100f89190610a29565b61045e565b60405161010a9190610cf6565b60405180910390f35b61012d60048036038101906101289190610d73565b6104a8565b005b61014960048036038101906101449190610de2565b61050d565b005b61016560048036038101906101609190610e22565b610511565b005b610181600480360381019061017c9190610a29565b61058c565b005b61018b6107b4565b60008260405161019b9190610ee9565b90815260200160405180910390206040518060600160405290816000820180546101c490610f2f565b80601f01602080910402602001604051908101604052809291908181526020018280546101f090610f2f565b801561023d5780601f106102125761010080835404028352916020019161023d565b820191906000526020600020905b81548152906001019060200180831161022057829003601f168201915b505050505081526020016001820160009054906101000a900473ffffffffffffffffffffffffffffffffffffffff1673ffffffffffffffffffffffffffffffffffffffff1673ffffffffffffffffffffffffffffffffffffffff16815260200160028201805480602002602001604051908101604052809291908181526020016000905b8282101561036d5783829060005260206000200180546102e090610f2f565b80601f016020809104026020016040519081016040528092919081815260200182805461030c90610f2f565b80156103595780601f1061032e57610100808354040283529160200191610359565b820191906000526020600020905b81548152906001019060200180831161033c57829003601f168201915b5050505050815260200190600101906102c1565b50505050815250509050919050565b6000818051602081018201805184825260208301602085012081835280955050505050506000915090508060000180546103b590610f2f565b80601f01602080910402602001604051908101604052809291908181526020018280546103e190610f2f565b801561042e5780601f106104035761010080835404028352916020019161042e565b820191906000526020600020905b81548152906001019060200180831161041157829003601f168201915b5050505050908060010160009054906101000a900473ffffffffffffffffffffffffffffffffffffffff16905082565b6000808260405161046f9190610ee9565b908152602001604051809103902060010160009054906101000a900473ffffffffffffffffffffffffffffffffffffffff169050919050565b306000846040516104b99190610ee9565b908152602001604051809103902060010160006101000a81548173ffffffffffffffffffffffffffffffffffffffff021916908373ffffffffffffffffffffffffffffffffffffffff160217905550505050565b5050565b6000836040516105219190610ee9565b908152602001604051809103902060020181908060018154018082558091505060019003906000526020600020016000909190919091509081610564919061110c565b506105876040518060600160405280603a815260200161127c603a9139846106d2565b505050565b60006040518060600160405280838152602001600073ffffffffffffffffffffffffffffffffffffffff168152602001600067ffffffffffffffff8111156105d7576105d66108fe565b5b60405190808252806020026020018201604052801561060a57816020015b60608152602001906001900390816105f55790505b50815250905061063260405180606001604052806037815260200161124560379139836106d2565b806000836040516106439190610ee9565b90815260200160405180910390206000820151816000019081610666919061110c565b5060208201518160010160006101000a81548173ffffffffffffffffffffffffffffffffffffffff021916908373ffffffffffffffffffffffffffffffffffffffff16021790555060408201518160020190805190602001906106ca9291906107eb565b509050505050565b61076a82826040516024016106e89291906111de565b6040516020818303038152906040527f4b5c4277000000000000000000000000000000000000000000000000000000007bffffffffffffffffffffffffffffffffffffffffffffffffffffffff19166020820180517bffffffffffffffffffffffffffffffffffffffffffffffffffffffff838183161783525050505061076e565b5050565b6107858161077d6107886107a9565b63ffffffff16565b50565b60006a636f6e736f6c652e6c6f679050600080835160208501845afa505050565b610844819050919050565b604051806060016040528060608152602001600073ffffffffffffffffffffffffffffffffffffffff168152602001606081525090565b828054828255906000526020600020908101928215610833579160200282015b82811115610832578251829081610822919061110c565b509160200191906001019061080b565b5b509050610840919061084e565b5090565b61084c611215565b565b5b8082111561086e57600081816108659190610872565b5060010161084f565b5090565b50805461087e90610f2f565b6000825580601f1061089057506108af565b601f0160209004906000526020600020908101906108ae91906108b2565b5b50565b5b808211156108cb5760008160009055506001016108b3565b5090565b6000604051905090565b600080fd5b600080fd5b600080fd5b600080fd5b6000601f19601f8301169050919050565b7f4e487b7100000000000000000000000000000000000000000000000000000000600052604160045260246000fd5b610936826108ed565b810181811067ffffffffffffffff82111715610955576109546108fe565b5b80604052505050565b60006109686108cf565b9050610974828261092d565b919050565b600067ffffffffffffffff821115610994576109936108fe565b5b61099d826108ed565b9050602081019050919050565b82818337600083830152505050565b60006109cc6109c784610979565b61095e565b9050828152602081018484840111156109e8576109e76108e8565b5b6109f38482856109aa565b509392505050565b600082601f830112610a1057610a0f6108e3565b5b8135610a208482602086016109b9565b91505092915050565b600060208284031215610a3f57610a3e6108d9565b5b600082013567ffffffffffffffff811115610a5d57610a5c6108de565b5b610a69848285016109fb565b91505092915050565b600081519050919050565b600082825260208201905092915050565b60005b83811015610aac578082015181840152602081019050610a91565b60008484015250505050565b6000610ac382610a72565b610acd8185610a7d565b9350610add818560208601610a8e565b610ae6816108ed565b840191505092915050565b600073ffffffffffffffffffffffffffffffffffffffff82169050919050565b6000610b1c82610af1565b9050919050565b610b2c81610b11565b82525050565b600081519050919050565b600082825260208201905092915050565b6000819050602082019050919050565b6000610b6a8383610ab8565b905092915050565b6000602082019050919050565b6000610b8a82610b32565b610b948185610b3d565b935083602082028501610ba685610b4e565b8060005b85811015610be25784840389528151610bc38582610b5e565b9450610bce83610b72565b925060208a01995050600181019050610baa565b50829750879550505050505092915050565b60006060830160008301518482036000860152610c118282610ab8565b9150506020830151610c266020860182610b23565b5060408301518482036040860152610c3e8282610b7f565b9150508091505092915050565b60006020820190508181036000830152610c658184610bf4565b905092915050565b600082825260208201905092915050565b6000610c8982610a72565b610c938185610c6d565b9350610ca3818560208601610a8e565b610cac816108ed565b840191505092915050565b610cc081610b11565b82525050565b60006040820190508181036000830152610ce08185610c7e565b9050610cef6020830184610cb7565b9392505050565b6000602082019050610d0b6000830184610cb7565b92915050565b610d1a81610b11565b8114610d2557600080fd5b50565b600081359050610d3781610d11565b92915050565b6000819050919050565b610d5081610d3d565b8114610d5b57600080fd5b50565b600081359050610d6d81610d47565b92915050565b600080600060608486031215610d8c57610d8b6108d9565b5b600084013567ffffffffffffffff811115610daa57610da96108de565b5b610db6868287016109fb565b9350506020610dc786828701610d28565b9250506040610dd886828701610d5e565b9150509250925092565b60008060408385031215610df957610df86108d9565b5b6000610e0785828601610d28565b9250506020610e1885828601610d28565b9150509250929050565b600080600060608486031215610e3b57610e3a6108d9565b5b600084013567ffffffffffffffff811115610e5957610e586108de565b5b610e65868287016109fb565b9350506020610e7686828701610d5e565b925050604084013567ffffffffffffffff811115610e9757610e966108de565b5b610ea3868287016109fb565b9150509250925092565b600081905092915050565b6000610ec382610a72565b610ecd8185610ead565b9350610edd818560208601610a8e565b80840191505092915050565b6000610ef58284610eb8565b915081905092915050565b7f4e487b7100000000000000000000000000000000000000000000000000000000600052602260045260246000fd5b60006002820490506001821680610f4757607f821691505b602082108103610f5a57610f59610f00565b5b50919050565b60008190508160005260206000209050919050565b60006020601f8301049050919050565b600082821b905092915050565b600060088302610fc27fffffffffffffffffffffffffffffffffffffffffffffffffffffffffffffffff82610f85565b610fcc8683610f85565b95508019841693508086168417925050509392505050565b6000819050919050565b6000611009611004610fff84610d3d565b610fe4565b610d3d565b9050919050565b6000819050919050565b61102383610fee565b61103761102f82611010565b848454610f92565b825550505050565b600090565b61104c61103f565b61105781848461101a565b505050565b5b8181101561107b57611070600082611044565b60018101905061105d565b5050565b601f8211156110c05761109181610f60565b61109a84610f75565b810160208510156110a9578190505b6110bd6110b585610f75565b83018261105c565b50505b505050565b600082821c905092915050565b60006110e3600019846008026110c5565b1980831691505092915050565b60006110fc83836110d2565b9150826002028217905092915050565b61111582610a72565b67ffffffffffffffff81111561112e5761112d6108fe565b5b6111388254610f2f565b61114382828561107f565b600060209050601f8311600181146111765760008415611164578287015190505b61116e85826110f0565b8655506111d6565b601f19841661118486610f60565b60005b828110156111ac57848901518255600182019150602085019450602081019050611187565b868310156111c957848901516111c5601f8916826110d2565b8355505b6001600288020188555050505b505050505050565b600060408201905081810360008301526111f88185610c7e565b9050818103602083015261120c8184610c7e565b90509392505050565b7f4e487b7100000000000000000000000000000000000000000000000000000000600052605160045260246000fdfe4c6120766f69747572652061766563206c27696d6d6174726963756c6174696f6e20257320612065746520656e7265676973747265652e6c6120766f69747572652025732061207265637520756e65206e6f7576656c6c6520656e747265652064616e7320736f6e206a6f75726e616c2ea2646970667358221220bac83e40a544bd9a36034b3933d86020c73ca1437948e4b5669dae7ae8627d3064736f6c63430008130033",
  "linkReferences": {},
  "deployedLinkReferences": {}
}